{"contracts/LimitOrderManager.sol":{"LimitOrderManager":{"abi":[{"inputs":[{"internalType":"address","name":"_router","type":"address"},{"internalType":"address","name":"_wsomi","type":"address"},{"internalType":"address","name":"_feeRecipient","type":"address"},{"internalType":"uint256","name":"_feeBps","type":"uint256"}],"stateMutability":"nonpayable","type":"constructor"},{"anonymous":false,"inputs":[{"indexed":true,"internalType":"address","name":"recipient","type":"address"},{"indexed":true,"internalType":"address","name":"token","type":"address"},{"indexed":false,"internalType":"uint256","name":"feeAmount","type":"uint256"},{"indexed":false,"internalType":"uint256","name":"bps","type":"uint256"}],"name":"FeeTaken","type":"event"},{"anonymous":false,"inputs":[{"indexed":true,"internalType":"address","name":"recipient","type":"address"},{"indexed":false,"internalType":"uint256","name":"feeBps","type":"uint256"}],"name":"FeeUpdated","type":"event"},{"anonymous":false,"inputs":[{"indexed":true,"internalType":"address","name":"trader","type":"address"},{"indexed":true,"internalType":"uint256","name":"nonce","type":"uint256"}],"name":"OrderCanceled","type":"event"},{"anonymous":false,"inputs":[{"indexed":true,"internalType":"address","name":"trader","type":"address"},{"indexed":true,"internalType":"uint256","name":"nonce","type":"uint256"},{"indexed":false,"internalType":"uint256","name":"amountOut","type":"uint256"}],"name":"OrderExecuted","type":"event"},{"inputs":[],"name":"DOMAIN_SEPARATOR","outputs":[{"internalType":"bytes32","name":"","type":"bytes32"}],"stateMutability":"view","type":"function"},{"inputs":[],"name":"ROUTER","outputs":[{"internalType":"address","name":"","type":"address"}],"stateMutability":"view","type":"function"},{"inputs":[],"name":"WSOMI","outputs":[{"internalType":"address","name":"","type":"address"}],"stateMutability":"view","type":"function"},{"inputs":[{"internalType":"uint256","name":"nonce","type":"uint256"}],"name":"cancel","outputs":[],"stateMutability":"nonpayable","type":"function"},{"inputs":[{"components":[{"internalType":"address","name":"trader","type":"address"},{"internalType":"address","name":"tokenIn","type":"address"},{"internalType":"address","name":"tokenOut","type":"address"},{"internalType":"uint256","name":"amountIn","type":"uint256"},{"internalType":"uint256","name":"amountOutMin","type":"uint256"},{"internalType":"uint256","name":"limitPriceE18","type":"uint256"},{"internalType":"uint256","name":"slippageBps","type":"uint256"},{"internalType":"uint256","name":"deadline","type":"uint256"},{"internalType":"uint256","name":"nonce","type":"uint256"}],"internalType":"struct LimitOrderManager.Order","name":"o","type":"tuple"},{"internalType":"bytes","name":"sig","type":"bytes"}],"name":"execute","outputs":[{"internalType":"uint256","name":"amountOut","type":"uint256"}],"stateMutability":"nonpayable","type":"function"},{"inputs":[],"name":"feeBps","outputs":[{"internalType":"uint256","name":"","type":"uint256"}],"stateMutability":"view","type":"function"},{"inputs":[],"name":"feeRecipient","outputs":[{"internalType":"address","name":"","type":"address"}],"stateMutability":"view","type":"function"},{"inputs":[{"components":[{"internalType":"address","name":"trader","type":"address"},{"internalType":"address","name":"tokenIn","type":"address"},{"internalType":"address","name":"tokenOut","type":"address"},{"internalType":"uint256","name":"amountIn","type":"uint256"},{"internalType":"uint256","name":"amountOutMin","type":"uint256"},{"internalType":"uint256","name":"limitPriceE18","type":"uint256"},{"internalType":"uint256","name":"slippageBps","type":"uint256"},{"internalType":"uint256","name":"deadline","type":"uint256"},{"internalType":"uint256","name":"nonce","type":"uint256"}],"internalType":"struct LimitOrderManager.Order","name":"o","type":"tuple"}],"name":"hashOrder","outputs":[{"internalType":"bytes32","name":"","type":"bytes32"}],"stateMutability":"pure","type":"function"},{"inputs":[{"internalType":"address","name":"","type":"address"},{"internalType":"uint256","name":"","type":"uint256"}],"name":"nonceUsed","outputs":[{"internalType":"bool","name":"","type":"bool"}],"stateMutability":"view","type":"function"},{"inputs":[],"name":"owner","outputs":[{"internalType":"address","name":"","type":"address"}],"stateMutability":"view","type":"function"},{"inputs":[{"internalType":"address","name":"_recipient","type":"address"},{"internalType":"uint256","name":"_feeBps","type":"uint256"}],"name":"setFee","outputs":[],"stateMutability":"nonpayable","type":"function"},{"inputs":[{"internalType":"address","name":"newOwner","type":"address"}],"name":"setOwner","outputs":[],"stateMutability":"nonpayable","type":"function"}],"evm":{"bytecode":{"linkReferences":{},"object":"60e03462000279576001600160401b0390601f620013ec38819003918201601f1916830192919084841183851017620001cc578160809284926040968752833981010312620002795762000053816200029a565b90602091620000648383016200029a565b906060620000748685016200029a565b930151916001600160a01b0391808316156200024a5760805260a052600080546001600160a01b03199081163317909155921691821562000215576103e88211620001e2577f6f0eaf2c2f89fb4cfe96a1dee5e764d60b52c7f48aaa590f0850e308aa1b953a918385926001541617600155806002558551908152a2601281835162000100816200027e565b828152017142696e676d65204c696d69744f726465727360701b8152209160018282516200012e816200027e565b82815201603160f81b8152208151928301937f8b73c3c69bb8fe3d512ecc4cf759cc79239f7b179b0ffacaa9a75d522b39400f85528284015260608301524660808301523060a083015260a0825260c082019382851090851117620001cc5783905251902060c05261113c9081620002b082396080518181816102930152610bbd015260a051816103c5015260c0518181816102da0152610f190152f35b634e487b7160e01b600052604160045260246000fd5b845162461bcd60e51b815260048101859052600c60248201526b0cccaca40e8dede40d0d2ced60a31b6044820152606490fd5b845162461bcd60e51b815260048101859052600e60248201526d0666565526563697069656e743d360941b6044820152606490fd5b865162461bcd60e51b81526004810187905260086024820152670726f757465723d360c41b6044820152606490fd5b600080fd5b604081019081106001600160401b03821117620001cc57604052565b51906001600160a01b0382168203620002795756fe6080604052600436101561001257600080fd5b60003560e01c806313af4035146100d75780631647795e146100d257806324a9d853146100cd5780632fa423e8146100c857806332fe7b26146100c35780633644e515146100be57806340e58ee5146100b957806346904840146100b45780638da5cb5b146100af578063d5a53bbb146100aa578063e55156b5146100a55763f5c9ce46146100a057600080fd5b6105d5565b6103f4565b6103af565b610386565b61035d565b6102fd565b6102c2565b61027d565b610207565b6101e9565b610199565b61011b565b6001600160a01b038116036100ed57565b600080fd5b600435906100ff826100dc565b565b602435906100ff826100dc565b604435906100ff826100dc565b346100ed5760203660031901126100ed57600435610138816100dc565b600054906001600160a01b03906101523383851614610656565b1690811561016a576001600160a01b03191617600055005b60405162461bcd60e51b815260206004820152600760248201526606f776e65723d360cc1b6044820152606490fd5b346100ed5760403660031901126100ed576004356101b6816100dc565b60018060a01b031660005260036020526040600020602435600052602052602060ff604060002054166040519015158152f35b346100ed5760003660031901126100ed576020600254604051908152f35b346100ed57366003190161014081126100ed57610120136100ed5767ffffffffffffffff610124358181116100ed57366023820112156100ed5780600401359182116100ed5736602483830101116100ed576102799160246102699201610a19565b6040519081529081906020820190565b0390f35b346100ed5760003660031901126100ed576040517f00000000000000000000000000000000000000000000000000000000000000006001600160a01b03168152602090f35b346100ed5760003660031901126100ed5760206040517f00000000000000000000000000000000000000000000000000000000000000008152f35b346100ed5760203660031901126100ed5760043560009033825260036020526040822081835260205260408220600160ff19825416179055337fafe5d45b77c7cea746dab67e30e6ca60c00cec51787feb121441c48ec20e3e578380a380f35b346100ed5760003660031901126100ed576001546040516001600160a01b039091168152602090f35b346100ed5760003660031901126100ed576000546040516001600160a01b039091168152602090f35b346100ed5760003660031901126100ed576040517f00000000000000000000000000000000000000000000000000000000000000006001600160a01b03168152602090f35b346100ed5760403660031901126100ed57600435610411816100dc565b60243560018060a01b0361042a81600054163314610656565b821691821561049a578161048c6104959261046a6103e87f6f0eaf2c2f89fb4cfe96a1dee5e764d60b52c7f48aaa590f0850e308aa1b953a9611156110cb565b60018060a01b03166bffffffffffffffffffffffff60a01b6001541617600155565b61026981600255565b0390a2005b60405162461bcd60e51b815260206004820152600e60248201526d0666565526563697069656e743d360941b6044820152606490fd5b634e487b7160e01b600052604160045260246000fd5b610160810190811067ffffffffffffffff82111761050357604052565b6104d0565b6080810190811067ffffffffffffffff82111761050357604052565b90601f8019910116810190811067ffffffffffffffff82111761050357604052565b60405190610120820182811067ffffffffffffffff82111761050357604052565b6101209060031901126100ed5761057c610546565b906105856100f2565b825261058f610101565b602083015261059c61010e565b60408301526064356060830152608435608083015260a43560a083015260c43560c083015260e43560e083015261010435610100830152565b346100ed576101203660031901126100ed57602061064e6105f4610546565b6105fc6100f2565b8152610606610101565b8382015261061261010e565b60408201526064356060820152608435608082015260a43560a082015260c43560c082015260e43560e082015261010435610100820152610e52565b604051908152f35b1561065d57565b60405162461bcd60e51b81526020600482015260096024820152683737ba1037bbb732b960b91b6044820152606490fd5b1561069557565b60405162461bcd60e51b8152602060048201526007602482015266195e1c1a5c995960ca1b6044820152606490fd5b6004356106d0816100dc565b90565b6024356106d0816100dc565b6044356106d0816100dc565b156106f257565b60405162461bcd60e51b815260206004820152600a6024820152691b9bdb98d9481d5cd95960b21b6044820152606490fd5b67ffffffffffffffff811161050357601f01601f191660200190565b92919261074c82610724565b9161075a6040519384610524565b8294818452818301116100ed578281602093846000960137010152565b1561077e57565b60405162461bcd60e51b815260206004820152600a6024820152693130b21039b4b3b732b960b11b6044820152606490fd5b908160209103126100ed575180151581036100ed5790565b6040513d6000823e3d90fd5b156107db57565b60405162461bcd60e51b81526020600482015260096024820152681c1d5b1b0819985a5b60ba1b6044820152606490fd5b634e487b7160e01b600052601160045260246000fd5b8181029291811591840414171561083557565b61080c565b9061271091820391821161083557565b60001981019190821161083557565b9190820391821161083557565b1561086d57565b60405162461bcd60e51b815260206004820152600d60248201526c199959481e19995c8819985a5b609a1b6044820152606490fd5b67ffffffffffffffff81116105035760051b60200190565b604051906060820182811067ffffffffffffffff8211176105035760405260028252604082602036910137565b634e487b7160e01b600052603260045260246000fd5b80511561090a5760200190565b6108e7565b80516001101561090a5760400190565b805182101561090a5760209160051b010190565b60209081818403126100ed5780519067ffffffffffffffff82116100ed57019180601f840112156100ed578251610969816108a2565b936109776040519586610524565b818552838086019260051b8201019283116100ed578301905b82821061099e575050505090565b81518152908301908301610990565b9291909594939560a08401908452602091602085015260a060408501528251809152602060c0850193019160005b8281106109fc5750505050906080919460018060a01b031660608201520152565b83516001600160a01b0316855293810193928101926001016109db565b919091610aa060e43593610a2f8542111561068e565b610a9a610a57610a3d6106c4565b6001600160a01b0316600090815260036020526040902090565b93610a89610a84610a80610a7961010435809990600052602052604060002090565b5460ff1690565b1590565b6106eb565b610a9236610567565b923691610740565b90610efe565b92610acc610abb610aaf6106c4565b6001600160a01b031690565b6001600160a01b0395861614610777565b610afa610aed83610ade610a3d6106c4565b90600052602052604060002090565b805460ff19166001179055565b610b08610aaf610aaf6106d3565b90610b116106c4565b6040516323b872dd60e01b81526001600160a01b039190911660048201523060248201526064803560448301819052600094909160209182918591829089905af1928315610cde578593610b6c918591610e35575b506107d4565b8160025480610d0e575b505050610b96610b8860a43583610822565b670de0b6b3a7640000900490565b60c43580610cea575b506084359080821115610ce357505b610bb66106d3565b90610be3837f00000000000000000000000000000000000000000000000000000000000000008094610ffc565b8389610bed6108ba565b94610c11610bf96106d3565b610c02886108fd565b6001600160a01b039091169052565b610c25610c1c6106df565b610c028861090f565b610c4e610c306106c4565b98604051998a98899788956338ed173960e01b8752600487016109ad565b0393165af1908115610cde5782610c779392610cbb575b5050610c71815161084a565b9061091f565b5192610c816106c4565b167f232b208d5ae890f6c319f1c92859a55c13aeffe9e64d80ba1f92b46fbd9e632360405180610cb687829190602083019252565b0390a3565b610cd792503d8091833e610ccf8183610524565b810190610933565b3880610c65565b6107c8565b9050610bae565b610d0891610cfa610d009261083a565b90610822565b612710900490565b38610b9f565b81929350610d00610d2291610d2993610822565b8092610859565b9181610d36575b80610b76565b610d8593508082610d4b610aaf610aaf6106d3565b60015460405163a9059cbb60e01b81526001600160a01b0390911660048201526024810192909252909586919082908a9082906044820190565b03925af18015610cde578694610da3928692610e08575b5050610866565b6001546001600160a01b0316907f916b8175cd5c46d919fd13bb22ffc701a10dec261c617873a53c55d45569a4e489610dda6106d3565b610dfe60025483604051948594169716958360209093929193604081019481520152565b0390a33880610d30565b610e279250803d10610e2e575b610e1f8183610524565b8101906107b0565b3880610d9c565b503d610e15565b610e4c9150833d8511610e2e57610e1f8183610524565b38610b66565b60018060a01b03808251169181602082015116916040820151169060608101519060808101519060a081015160c08201519260e08301519461010080940151966040519860208a019a7f8719b3760edc0c2725c76603401748c4aa09562bfa23a259947390a9b27b4ce98c5260408b015260608a0152608089015260a088015260c087015260e086015284015261012083015261014090818301528152610ef8816104e6565b51902090565b610f0790610e52565b604051602081019161190160f01b83527f00000000000000000000000000000000000000000000000000000000000000006022830152604282015260428152610f4f81610508565b519020906041815103610f9d576020818101516040808401516060948501518251968752600090811a8786015291860192909252928401528180529160809060015afa15610cde5760005190565b60405162461bcd60e51b81526020600482015260076024820152666261642073696760c81b6044820152606490fd5b3d15610ff7573d90610fdd82610724565b91610feb6040519384610524565b82523d6000602084013e565b606090565b60405163095ea7b360e01b602082018181526001600160a01b038516602484015260006044808501829052845295869592938693919261108392918591829161104481610508565b5190828a5af150611053610fcc565b50604051602081019586526001600160a01b03919091166024820152604480820193909352918252606482610524565b51925af161108f610fcc565b501561109757565b60405162461bcd60e51b815260206004820152600c60248201526b185c1c1c9bdd994819985a5b60a21b6044820152606490fd5b156110d257565b60405162461bcd60e51b815260206004820152600c60248201526b0cccaca40e8dede40d0d2ced60a31b6044820152606490fdfea2646970667358221220e8e0f4a7235d0cde2f2106500ef3f9e94c4b999e5c4a3ec77e57297ee9583b2164736f6c63430008180033","opcodes":"PUSH1 0xE0 CALLVALUE PUSH3 0x279 JUMPI PUSH1 0x1 PUSH1 0x1 PUSH1 0x40 SHL SUB SWAP1 PUSH1 0x1F PUSH3 0x13EC CODESIZE DUP2 SWAP1 SUB SWAP2 DUP3 ADD PUSH1 0x1F NOT AND DUP4 ADD SWAP3 SWAP2 SWAP1 DUP5 DUP5 GT DUP4 DUP6 LT OR PUSH3 0x1CC JUMPI DUP2 PUSH1 0x80 SWAP3 DUP5 SWAP3 PUSH1 0x40 SWAP7 DUP8 MSTORE DUP4 CODECOPY DUP2 ADD SUB SLT PUSH3 0x279 JUMPI PUSH3 0x53 DUP2 PUSH3 0x29A JUMP JUMPDEST SWAP1 PUSH1 0x20 SWAP2 PUSH3 0x64 DUP4 DUP4 ADD PUSH3 0x29A JUMP JUMPDEST SWAP1 PUSH1 0x60 PUSH3 0x74 DUP7 DUP6 ADD PUSH3 0x29A JUMP JUMPDEST SWAP4 ADD MLOAD SWAP2 PUSH1 0x1 PUSH1 0x1 PUSH1 0xA0 SHL SUB SWAP2 DUP1 DUP4 AND ISZERO PUSH3 0x24A JUMPI PUSH1 0x80 MSTORE PUSH1 0xA0 MSTORE PUSH1 0x0 DUP1 SLOAD PUSH1 0x1 PUSH1 0x1 PUSH1 0xA0 SHL SUB NOT SWAP1 DUP2 AND CALLER OR SWAP1 SWAP2 SSTORE SWAP3 AND SWAP2 DUP3 ISZERO PUSH3 0x215 JUMPI PUSH2 0x3E8 DUP3 GT PUSH3 0x1E2 JUMPI PUSH32 0x6F0EAF2C2F89FB4CFE96A1DEE5E764D60B52C7F48AAA590F0850E308AA1B953A SWAP2 DUP4 DUP6 SWAP3 PUSH1 0x1 SLOAD AND OR PUSH1 0x1 SSTORE DUP1 PUSH1 0x2 SSTORE DUP6 MLOAD SWAP1 DUP2 MSTORE LOG2 PUSH1 0x12 DUP2 DUP4 MLOAD PUSH3 0x100 DUP2 PUSH3 0x27E JUMP JUMPDEST DUP3 DUP2 MSTORE ADD PUSH18 0x42696E676D65204C696D69744F7264657273 PUSH1 0x70 SHL DUP2 MSTORE KECCAK256 SWAP2 PUSH1 0x1 DUP3 DUP3 MLOAD PUSH3 0x12E DUP2 PUSH3 0x27E JUMP JUMPDEST DUP3 DUP2 MSTORE ADD PUSH1 0x31 PUSH1 0xF8 SHL DUP2 MSTORE KECCAK256 DUP2 MLOAD SWAP3 DUP4 ADD SWAP4 PUSH32 0x8B73C3C69BB8FE3D512ECC4CF759CC79239F7B179B0FFACAA9A75D522B39400F DUP6 MSTORE DUP3 DUP5 ADD MSTORE PUSH1 0x60 DUP4 ADD MSTORE CHAINID PUSH1 0x80 DUP4 ADD MSTORE ADDRESS PUSH1 0xA0 DUP4 ADD MSTORE PUSH1 0xA0 DUP3 MSTORE PUSH1 0xC0 DUP3 ADD SWAP4 DUP3 DUP6 LT SWAP1 DUP6 GT OR PUSH3 0x1CC JUMPI DUP4 SWAP1 MSTORE MLOAD SWAP1 KECCAK256 PUSH1 0xC0 MSTORE PUSH2 0x113C SWAP1 DUP2 PUSH3 0x2B0 DUP3 CODECOPY PUSH1 0x80 MLOAD DUP2 DUP2 DUP2 PUSH2 0x293 ADD MSTORE PUSH2 0xBBD ADD MSTORE PUSH1 0xA0 MLOAD DUP2 PUSH2 0x3C5 ADD MSTORE PUSH1 0xC0 MLOAD DUP2 DUP2 DUP2 PUSH2 0x2DA ADD MSTORE PUSH2 0xF19 ADD MSTORE RETURN JUMPDEST PUSH4 0x4E487B71 PUSH1 0xE0 SHL PUSH1 0x0 MSTORE PUSH1 0x41 PUSH1 0x4 MSTORE PUSH1 0x24 PUSH1 0x0 REVERT JUMPDEST DUP5 MLOAD PUSH3 0x461BCD PUSH1 0xE5 SHL DUP2 MSTORE PUSH1 0x4 DUP2 ADD DUP6 SWAP1 MSTORE PUSH1 0xC PUSH1 0x24 DUP3 ADD MSTORE PUSH12 0xCCCACA40E8DEDE40D0D2CED PUSH1 0xA3 SHL PUSH1 0x44 DUP3 ADD MSTORE PUSH1 0x64 SWAP1 REVERT JUMPDEST DUP5 MLOAD PUSH3 0x461BCD PUSH1 0xE5 SHL DUP2 MSTORE PUSH1 0x4 DUP2 ADD DUP6 SWAP1 MSTORE PUSH1 0xE PUSH1 0x24 DUP3 ADD MSTORE PUSH14 0x666565526563697069656E743D3 PUSH1 0x94 SHL PUSH1 0x44 DUP3 ADD MSTORE PUSH1 0x64 SWAP1 REVERT JUMPDEST DUP7 MLOAD PUSH3 0x461BCD PUSH1 0xE5 SHL DUP2 MSTORE PUSH1 0x4 DUP2 ADD DUP8 SWAP1 MSTORE PUSH1 0x8 PUSH1 0x24 DUP3 ADD MSTORE PUSH8 0x726F757465723D3 PUSH1 0xC4 SHL PUSH1 0x44 DUP3 ADD MSTORE PUSH1 0x64 SWAP1 REVERT JUMPDEST PUSH1 0x0 DUP1 REVERT JUMPDEST PUSH1 0x40 DUP2 ADD SWAP1 DUP2 LT PUSH1 0x1 PUSH1 0x1 PUSH1 0x40 SHL SUB DUP3 GT OR PUSH3 0x1CC JUMPI PUSH1 0x40 MSTORE JUMP JUMPDEST MLOAD SWAP1 PUSH1 0x1 PUSH1 0x1 PUSH1 0xA0 SHL SUB DUP3 AND DUP3 SUB PUSH3 0x279 JUMPI JUMP INVALID PUSH1 0x80 PUSH1 0x40 MSTORE PUSH1 0x4 CALLDATASIZE LT ISZERO PUSH2 0x12 JUMPI PUSH1 0x0 DUP1 REVERT JUMPDEST PUSH1 0x0 CALLDATALOAD PUSH1 0xE0 SHR DUP1 PUSH4 0x13AF4035 EQ PUSH2 0xD7 JUMPI DUP1 PUSH4 0x1647795E EQ PUSH2 0xD2 JUMPI DUP1 PUSH4 0x24A9D853 EQ PUSH2 0xCD JUMPI DUP1 PUSH4 0x2FA423E8 EQ PUSH2 0xC8 JUMPI DUP1 PUSH4 0x32FE7B26 EQ PUSH2 0xC3 JUMPI DUP1 PUSH4 0x3644E515 EQ PUSH2 0xBE JUMPI DUP1 PUSH4 0x40E58EE5 EQ PUSH2 0xB9 JUMPI DUP1 PUSH4 0x46904840 EQ PUSH2 0xB4 JUMPI DUP1 PUSH4 0x8DA5CB5B EQ PUSH2 0xAF JUMPI DUP1 PUSH4 0xD5A53BBB EQ PUSH2 0xAA JUMPI DUP1 PUSH4 0xE55156B5 EQ PUSH2 0xA5 JUMPI PUSH4 0xF5C9CE46 EQ PUSH2 0xA0 JUMPI PUSH1 0x0 DUP1 REVERT JUMPDEST PUSH2 0x5D5 JUMP JUMPDEST PUSH2 0x3F4 JUMP JUMPDEST PUSH2 0x3AF JUMP JUMPDEST PUSH2 0x386 JUMP JUMPDEST PUSH2 0x35D JUMP JUMPDEST PUSH2 0x2FD JUMP JUMPDEST PUSH2 0x2C2 JUMP JUMPDEST PUSH2 0x27D JUMP JUMPDEST PUSH2 0x207 JUMP JUMPDEST PUSH2 0x1E9 JUMP JUMPDEST PUSH2 0x199 JUMP JUMPDEST PUSH2 0x11B JUMP JUMPDEST PUSH1 0x1 PUSH1 0x1 PUSH1 0xA0 SHL SUB DUP2 AND SUB PUSH2 0xED JUMPI JUMP JUMPDEST PUSH1 0x0 DUP1 REVERT JUMPDEST PUSH1 0x4 CALLDATALOAD SWAP1 PUSH2 0xFF DUP3 PUSH2 0xDC JUMP JUMPDEST JUMP JUMPDEST PUSH1 0x24 CALLDATALOAD SWAP1 PUSH2 0xFF DUP3 PUSH2 0xDC JUMP JUMPDEST PUSH1 0x44 CALLDATALOAD SWAP1 PUSH2 0xFF DUP3 PUSH2 0xDC JUMP JUMPDEST CALLVALUE PUSH2 0xED JUMPI PUSH1 0x20 CALLDATASIZE PUSH1 0x3 NOT ADD SLT PUSH2 0xED JUMPI PUSH1 0x4 CALLDATALOAD PUSH2 0x138 DUP2 PUSH2 0xDC JUMP JUMPDEST PUSH1 0x0 SLOAD SWAP1 PUSH1 0x1 PUSH1 0x1 PUSH1 0xA0 SHL SUB SWAP1 PUSH2 0x152 CALLER DUP4 DUP6 AND EQ PUSH2 0x656 JUMP JUMPDEST AND SWAP1 DUP2 ISZERO PUSH2 0x16A JUMPI PUSH1 0x1 PUSH1 0x1 PUSH1 0xA0 SHL SUB NOT AND OR PUSH1 0x0 SSTORE STOP JUMPDEST PUSH1 0x40 MLOAD PUSH3 0x461BCD PUSH1 0xE5 SHL DUP2 MSTORE PUSH1 0x20 PUSH1 0x4 DUP3 ADD MSTORE PUSH1 0x7 PUSH1 0x24 DUP3 ADD MSTORE PUSH7 0x6F776E65723D3 PUSH1 0xCC SHL PUSH1 0x44 DUP3 ADD MSTORE PUSH1 0x64 SWAP1 REVERT JUMPDEST CALLVALUE PUSH2 0xED JUMPI PUSH1 0x40 CALLDATASIZE PUSH1 0x3 NOT ADD SLT PUSH2 0xED JUMPI PUSH1 0x4 CALLDATALOAD PUSH2 0x1B6 DUP2 PUSH2 0xDC JUMP JUMPDEST PUSH1 0x1 DUP1 PUSH1 0xA0 SHL SUB AND PUSH1 0x0 MSTORE PUSH1 0x3 PUSH1 0x20 MSTORE PUSH1 0x40 PUSH1 0x0 KECCAK256 PUSH1 0x24 CALLDATALOAD PUSH1 0x0 MSTORE PUSH1 0x20 MSTORE PUSH1 0x20 PUSH1 0xFF PUSH1 0x40 PUSH1 0x0 KECCAK256 SLOAD AND PUSH1 0x40 MLOAD SWAP1 ISZERO ISZERO DUP2 MSTORE RETURN JUMPDEST CALLVALUE PUSH2 0xED JUMPI PUSH1 0x0 CALLDATASIZE PUSH1 0x3 NOT ADD SLT PUSH2 0xED JUMPI PUSH1 0x20 PUSH1 0x2 SLOAD PUSH1 0x40 MLOAD SWAP1 DUP2 MSTORE RETURN JUMPDEST CALLVALUE PUSH2 0xED JUMPI CALLDATASIZE PUSH1 0x3 NOT ADD PUSH2 0x140 DUP2 SLT PUSH2 0xED JUMPI PUSH2 0x120 SGT PUSH2 0xED JUMPI PUSH8 0xFFFFFFFFFFFFFFFF PUSH2 0x124 CALLDATALOAD DUP2 DUP2 GT PUSH2 0xED JUMPI CALLDATASIZE PUSH1 0x23 DUP3 ADD SLT ISZERO PUSH2 0xED JUMPI DUP1 PUSH1 0x4 ADD CALLDATALOAD SWAP2 DUP3 GT PUSH2 0xED JUMPI CALLDATASIZE PUSH1 0x24 DUP4 DUP4 ADD ADD GT PUSH2 0xED JUMPI PUSH2 0x279 SWAP2 PUSH1 0x24 PUSH2 0x269 SWAP3 ADD PUSH2 0xA19 JUMP JUMPDEST PUSH1 0x40 MLOAD SWAP1 DUP2 MSTORE SWAP1 DUP2 SWAP1 PUSH1 0x20 DUP3 ADD SWAP1 JUMP JUMPDEST SUB SWAP1 RETURN JUMPDEST CALLVALUE PUSH2 0xED JUMPI PUSH1 0x0 CALLDATASIZE PUSH1 0x3 NOT ADD SLT PUSH2 0xED JUMPI PUSH1 0x40 MLOAD PUSH32 0x0 PUSH1 0x1 PUSH1 0x1 PUSH1 0xA0 SHL SUB AND DUP2 MSTORE PUSH1 0x20 SWAP1 RETURN JUMPDEST CALLVALUE PUSH2 0xED JUMPI PUSH1 0x0 CALLDATASIZE PUSH1 0x3 NOT ADD SLT PUSH2 0xED JUMPI PUSH1 0x20 PUSH1 0x40 MLOAD PUSH32 0x0 DUP2 MSTORE RETURN JUMPDEST CALLVALUE PUSH2 0xED JUMPI PUSH1 0x20 CALLDATASIZE PUSH1 0x3 NOT ADD SLT PUSH2 0xED JUMPI PUSH1 0x4 CALLDATALOAD PUSH1 0x0 SWAP1 CALLER DUP3 MSTORE PUSH1 0x3 PUSH1 0x20 MSTORE PUSH1 0x40 DUP3 KECCAK256 DUP2 DUP4 MSTORE PUSH1 0x20 MSTORE PUSH1 0x40 DUP3 KECCAK256 PUSH1 0x1 PUSH1 0xFF NOT DUP3 SLOAD AND OR SWAP1 SSTORE CALLER PUSH32 0xAFE5D45B77C7CEA746DAB67E30E6CA60C00CEC51787FEB121441C48EC20E3E57 DUP4 DUP1 LOG3 DUP1 RETURN JUMPDEST CALLVALUE PUSH2 0xED JUMPI PUSH1 0x0 CALLDATASIZE PUSH1 0x3 NOT ADD SLT PUSH2 0xED JUMPI PUSH1 0x1 SLOAD PUSH1 0x40 MLOAD PUSH1 0x1 PUSH1 0x1 PUSH1 0xA0 SHL SUB SWAP1 SWAP2 AND DUP2 MSTORE PUSH1 0x20 SWAP1 RETURN JUMPDEST CALLVALUE PUSH2 0xED JUMPI PUSH1 0x0 CALLDATASIZE PUSH1 0x3 NOT ADD SLT PUSH2 0xED JUMPI PUSH1 0x0 SLOAD PUSH1 0x40 MLOAD PUSH1 0x1 PUSH1 0x1 PUSH1 0xA0 SHL SUB SWAP1 SWAP2 AND DUP2 MSTORE PUSH1 0x20 SWAP1 RETURN JUMPDEST CALLVALUE PUSH2 0xED JUMPI PUSH1 0x0 CALLDATASIZE PUSH1 0x3 NOT ADD SLT PUSH2 0xED JUMPI PUSH1 0x40 MLOAD PUSH32 0x0 PUSH1 0x1 PUSH1 0x1 PUSH1 0xA0 SHL SUB AND DUP2 MSTORE PUSH1 0x20 SWAP1 RETURN JUMPDEST CALLVALUE PUSH2 0xED JUMPI PUSH1 0x40 CALLDATASIZE PUSH1 0x3 NOT ADD SLT PUSH2 0xED JUMPI PUSH1 0x4 CALLDATALOAD PUSH2 0x411 DUP2 PUSH2 0xDC JUMP JUMPDEST PUSH1 0x24 CALLDATALOAD PUSH1 0x1 DUP1 PUSH1 0xA0 SHL SUB PUSH2 0x42A DUP2 PUSH1 0x0 SLOAD AND CALLER EQ PUSH2 0x656 JUMP JUMPDEST DUP3 AND SWAP2 DUP3 ISZERO PUSH2 0x49A JUMPI DUP2 PUSH2 0x48C PUSH2 0x495 SWAP3 PUSH2 0x46A PUSH2 0x3E8 PUSH32 0x6F0EAF2C2F89FB4CFE96A1DEE5E764D60B52C7F48AAA590F0850E308AA1B953A SWAP7 GT ISZERO PUSH2 0x10CB JUMP JUMPDEST PUSH1 0x1 DUP1 PUSH1 0xA0 SHL SUB AND PUSH12 0xFFFFFFFFFFFFFFFFFFFFFFFF PUSH1 0xA0 SHL PUSH1 0x1 SLOAD AND OR PUSH1 0x1 SSTORE JUMP JUMPDEST PUSH2 0x269 DUP2 PUSH1 0x2 SSTORE JUMP JUMPDEST SUB SWAP1 LOG2 STOP JUMPDEST PUSH1 0x40 MLOAD PUSH3 0x461BCD PUSH1 0xE5 SHL DUP2 MSTORE PUSH1 0x20 PUSH1 0x4 DUP3 ADD MSTORE PUSH1 0xE PUSH1 0x24 DUP3 ADD MSTORE PUSH14 0x666565526563697069656E743D3 PUSH1 0x94 SHL PUSH1 0x44 DUP3 ADD MSTORE PUSH1 0x64 SWAP1 REVERT JUMPDEST PUSH4 0x4E487B71 PUSH1 0xE0 SHL PUSH1 0x0 MSTORE PUSH1 0x41 PUSH1 0x4 MSTORE PUSH1 0x24 PUSH1 0x0 REVERT JUMPDEST PUSH2 0x160 DUP2 ADD SWAP1 DUP2 LT PUSH8 0xFFFFFFFFFFFFFFFF DUP3 GT OR PUSH2 0x503 JUMPI PUSH1 0x40 MSTORE JUMP JUMPDEST PUSH2 0x4D0 JUMP JUMPDEST PUSH1 0x80 DUP2 ADD SWAP1 DUP2 LT PUSH8 0xFFFFFFFFFFFFFFFF DUP3 GT OR PUSH2 0x503 JUMPI PUSH1 0x40 MSTORE JUMP JUMPDEST SWAP1 PUSH1 0x1F DUP1 NOT SWAP2 ADD AND DUP2 ADD SWAP1 DUP2 LT PUSH8 0xFFFFFFFFFFFFFFFF DUP3 GT OR PUSH2 0x503 JUMPI PUSH1 0x40 MSTORE JUMP JUMPDEST PUSH1 0x40 MLOAD SWAP1 PUSH2 0x120 DUP3 ADD DUP3 DUP2 LT PUSH8 0xFFFFFFFFFFFFFFFF DUP3 GT OR PUSH2 0x503 JUMPI PUSH1 0x40 MSTORE JUMP JUMPDEST PUSH2 0x120 SWAP1 PUSH1 0x3 NOT ADD SLT PUSH2 0xED JUMPI PUSH2 0x57C PUSH2 0x546 JUMP JUMPDEST SWAP1 PUSH2 0x585 PUSH2 0xF2 JUMP JUMPDEST DUP3 MSTORE PUSH2 0x58F PUSH2 0x101 JUMP JUMPDEST PUSH1 0x20 DUP4 ADD MSTORE PUSH2 0x59C PUSH2 0x10E JUMP JUMPDEST PUSH1 0x40 DUP4 ADD MSTORE PUSH1 0x64 CALLDATALOAD PUSH1 0x60 DUP4 ADD MSTORE PUSH1 0x84 CALLDATALOAD PUSH1 0x80 DUP4 ADD MSTORE PUSH1 0xA4 CALLDATALOAD PUSH1 0xA0 DUP4 ADD MSTORE PUSH1 0xC4 CALLDATALOAD PUSH1 0xC0 DUP4 ADD MSTORE PUSH1 0xE4 CALLDATALOAD PUSH1 0xE0 DUP4 ADD MSTORE PUSH2 0x104 CALLDATALOAD PUSH2 0x100 DUP4 ADD MSTORE JUMP JUMPDEST CALLVALUE PUSH2 0xED JUMPI PUSH2 0x120 CALLDATASIZE PUSH1 0x3 NOT ADD SLT PUSH2 0xED JUMPI PUSH1 0x20 PUSH2 0x64E PUSH2 0x5F4 PUSH2 0x546 JUMP JUMPDEST PUSH2 0x5FC PUSH2 0xF2 JUMP JUMPDEST DUP2 MSTORE PUSH2 0x606 PUSH2 0x101 JUMP JUMPDEST DUP4 DUP3 ADD MSTORE PUSH2 0x612 PUSH2 0x10E JUMP JUMPDEST PUSH1 0x40 DUP3 ADD MSTORE PUSH1 0x64 CALLDATALOAD PUSH1 0x60 DUP3 ADD MSTORE PUSH1 0x84 CALLDATALOAD PUSH1 0x80 DUP3 ADD MSTORE PUSH1 0xA4 CALLDATALOAD PUSH1 0xA0 DUP3 ADD MSTORE PUSH1 0xC4 CALLDATALOAD PUSH1 0xC0 DUP3 ADD MSTORE PUSH1 0xE4 CALLDATALOAD PUSH1 0xE0 DUP3 ADD MSTORE PUSH2 0x104 CALLDATALOAD PUSH2 0x100 DUP3 ADD MSTORE PUSH2 0xE52 JUMP JUMPDEST PUSH1 0x40 MLOAD SWAP1 DUP2 MSTORE RETURN JUMPDEST ISZERO PUSH2 0x65D JUMPI JUMP JUMPDEST PUSH1 0x40 MLOAD PUSH3 0x461BCD PUSH1 0xE5 SHL DUP2 MSTORE PUSH1 0x20 PUSH1 0x4 DUP3 ADD MSTORE PUSH1 0x9 PUSH1 0x24 DUP3 ADD MSTORE PUSH9 0x3737BA1037BBB732B9 PUSH1 0xB9 SHL PUSH1 0x44 DUP3 ADD MSTORE PUSH1 0x64 SWAP1 REVERT JUMPDEST ISZERO PUSH2 0x695 JUMPI JUMP JUMPDEST PUSH1 0x40 MLOAD PUSH3 0x461BCD PUSH1 0xE5 SHL DUP2 MSTORE PUSH1 0x20 PUSH1 0x4 DUP3 ADD MSTORE PUSH1 0x7 PUSH1 0x24 DUP3 ADD MSTORE PUSH7 0x195E1C1A5C9959 PUSH1 0xCA SHL PUSH1 0x44 DUP3 ADD MSTORE PUSH1 0x64 SWAP1 REVERT JUMPDEST PUSH1 0x4 CALLDATALOAD PUSH2 0x6D0 DUP2 PUSH2 0xDC JUMP JUMPDEST SWAP1 JUMP JUMPDEST PUSH1 0x24 CALLDATALOAD PUSH2 0x6D0 DUP2 PUSH2 0xDC JUMP JUMPDEST PUSH1 0x44 CALLDATALOAD PUSH2 0x6D0 DUP2 PUSH2 0xDC JUMP JUMPDEST ISZERO PUSH2 0x6F2 JUMPI JUMP JUMPDEST PUSH1 0x40 MLOAD PUSH3 0x461BCD PUSH1 0xE5 SHL DUP2 MSTORE PUSH1 0x20 PUSH1 0x4 DUP3 ADD MSTORE PUSH1 0xA PUSH1 0x24 DUP3 ADD MSTORE PUSH10 0x1B9BDB98D9481D5CD959 PUSH1 0xB2 SHL PUSH1 0x44 DUP3 ADD MSTORE PUSH1 0x64 SWAP1 REVERT JUMPDEST PUSH8 0xFFFFFFFFFFFFFFFF DUP2 GT PUSH2 0x503 JUMPI PUSH1 0x1F ADD PUSH1 0x1F NOT AND PUSH1 0x20 ADD SWAP1 JUMP JUMPDEST SWAP3 SWAP2 SWAP3 PUSH2 0x74C DUP3 PUSH2 0x724 JUMP JUMPDEST SWAP2 PUSH2 0x75A PUSH1 0x40 MLOAD SWAP4 DUP5 PUSH2 0x524 JUMP JUMPDEST DUP3 SWAP5 DUP2 DUP5 MSTORE DUP2 DUP4 ADD GT PUSH2 0xED JUMPI DUP3 DUP2 PUSH1 0x20 SWAP4 DUP5 PUSH1 0x0 SWAP7 ADD CALLDATACOPY ADD ADD MSTORE JUMP JUMPDEST ISZERO PUSH2 0x77E JUMPI JUMP JUMPDEST PUSH1 0x40 MLOAD PUSH3 0x461BCD PUSH1 0xE5 SHL DUP2 MSTORE PUSH1 0x20 PUSH1 0x4 DUP3 ADD MSTORE PUSH1 0xA PUSH1 0x24 DUP3 ADD MSTORE PUSH10 0x3130B21039B4B3B732B9 PUSH1 0xB1 SHL PUSH1 0x44 DUP3 ADD MSTORE PUSH1 0x64 SWAP1 REVERT JUMPDEST SWAP1 DUP2 PUSH1 0x20 SWAP2 SUB SLT PUSH2 0xED JUMPI MLOAD DUP1 ISZERO ISZERO DUP2 SUB PUSH2 0xED JUMPI SWAP1 JUMP JUMPDEST PUSH1 0x40 MLOAD RETURNDATASIZE PUSH1 0x0 DUP3 RETURNDATACOPY RETURNDATASIZE SWAP1 REVERT JUMPDEST ISZERO PUSH2 0x7DB JUMPI JUMP JUMPDEST PUSH1 0x40 MLOAD PUSH3 0x461BCD PUSH1 0xE5 SHL DUP2 MSTORE PUSH1 0x20 PUSH1 0x4 DUP3 ADD MSTORE PUSH1 0x9 PUSH1 0x24 DUP3 ADD MSTORE PUSH9 0x1C1D5B1B0819985A5B PUSH1 0xBA SHL PUSH1 0x44 DUP3 ADD MSTORE PUSH1 0x64 SWAP1 REVERT JUMPDEST PUSH4 0x4E487B71 PUSH1 0xE0 SHL PUSH1 0x0 MSTORE PUSH1 0x11 PUSH1 0x4 MSTORE PUSH1 0x24 PUSH1 0x0 REVERT JUMPDEST DUP2 DUP2 MUL SWAP3 SWAP2 DUP2 ISZERO SWAP2 DUP5 DIV EQ OR ISZERO PUSH2 0x835 JUMPI JUMP JUMPDEST PUSH2 0x80C JUMP JUMPDEST SWAP1 PUSH2 0x2710 SWAP2 DUP3 SUB SWAP2 DUP3 GT PUSH2 0x835 JUMPI JUMP JUMPDEST PUSH1 0x0 NOT DUP2 ADD SWAP2 SWAP1 DUP3 GT PUSH2 0x835 JUMPI JUMP JUMPDEST SWAP2 SWAP1 DUP3 SUB SWAP2 DUP3 GT PUSH2 0x835 JUMPI JUMP JUMPDEST ISZERO PUSH2 0x86D JUMPI JUMP JUMPDEST PUSH1 0x40 MLOAD PUSH3 0x461BCD PUSH1 0xE5 SHL DUP2 MSTORE PUSH1 0x20 PUSH1 0x4 DUP3 ADD MSTORE PUSH1 0xD PUSH1 0x24 DUP3 ADD MSTORE PUSH13 0x199959481E19995C8819985A5B PUSH1 0x9A SHL PUSH1 0x44 DUP3 ADD MSTORE PUSH1 0x64 SWAP1 REVERT JUMPDEST PUSH8 0xFFFFFFFFFFFFFFFF DUP2 GT PUSH2 0x503 JUMPI PUSH1 0x5 SHL PUSH1 0x20 ADD SWAP1 JUMP JUMPDEST PUSH1 0x40 MLOAD SWAP1 PUSH1 0x60 DUP3 ADD DUP3 DUP2 LT PUSH8 0xFFFFFFFFFFFFFFFF DUP3 GT OR PUSH2 0x503 JUMPI PUSH1 0x40 MSTORE PUSH1 0x2 DUP3 MSTORE PUSH1 0x40 DUP3 PUSH1 0x20 CALLDATASIZE SWAP2 ADD CALLDATACOPY JUMP JUMPDEST PUSH4 0x4E487B71 PUSH1 0xE0 SHL PUSH1 0x0 MSTORE PUSH1 0x32 PUSH1 0x4 MSTORE PUSH1 0x24 PUSH1 0x0 REVERT JUMPDEST DUP1 MLOAD ISZERO PUSH2 0x90A JUMPI PUSH1 0x20 ADD SWAP1 JUMP JUMPDEST PUSH2 0x8E7 JUMP JUMPDEST DUP1 MLOAD PUSH1 0x1 LT ISZERO PUSH2 0x90A JUMPI PUSH1 0x40 ADD SWAP1 JUMP JUMPDEST DUP1 MLOAD DUP3 LT ISZERO PUSH2 0x90A JUMPI PUSH1 0x20 SWAP2 PUSH1 0x5 SHL ADD ADD SWAP1 JUMP JUMPDEST PUSH1 0x20 SWAP1 DUP2 DUP2 DUP5 SUB SLT PUSH2 0xED JUMPI DUP1 MLOAD SWAP1 PUSH8 0xFFFFFFFFFFFFFFFF DUP3 GT PUSH2 0xED JUMPI ADD SWAP2 DUP1 PUSH1 0x1F DUP5 ADD SLT ISZERO PUSH2 0xED JUMPI DUP3 MLOAD PUSH2 0x969 DUP2 PUSH2 0x8A2 JUMP JUMPDEST SWAP4 PUSH2 0x977 PUSH1 0x40 MLOAD SWAP6 DUP7 PUSH2 0x524 JUMP JUMPDEST DUP2 DUP6 MSTORE DUP4 DUP1 DUP7 ADD SWAP3 PUSH1 0x5 SHL DUP3 ADD ADD SWAP3 DUP4 GT PUSH2 0xED JUMPI DUP4 ADD SWAP1 JUMPDEST DUP3 DUP3 LT PUSH2 0x99E JUMPI POP POP POP POP SWAP1 JUMP JUMPDEST DUP2 MLOAD DUP2 MSTORE SWAP1 DUP4 ADD SWAP1 DUP4 ADD PUSH2 0x990 JUMP JUMPDEST SWAP3 SWAP2 SWAP1 SWAP6 SWAP5 SWAP4 SWAP6 PUSH1 0xA0 DUP5 ADD SWAP1 DUP5 MSTORE PUSH1 0x20 SWAP2 PUSH1 0x20 DUP6 ADD MSTORE PUSH1 0xA0 PUSH1 0x40 DUP6 ADD MSTORE DUP3 MLOAD DUP1 SWAP2 MSTORE PUSH1 0x20 PUSH1 0xC0 DUP6 ADD SWAP4 ADD SWAP2 PUSH1 0x0 JUMPDEST DUP3 DUP2 LT PUSH2 0x9FC JUMPI POP POP POP POP SWAP1 PUSH1 0x80 SWAP2 SWAP5 PUSH1 0x1 DUP1 PUSH1 0xA0 SHL SUB AND PUSH1 0x60 DUP3 ADD MSTORE ADD MSTORE JUMP JUMPDEST DUP4 MLOAD PUSH1 0x1 PUSH1 0x1 PUSH1 0xA0 SHL SUB AND DUP6 MSTORE SWAP4 DUP2 ADD SWAP4 SWAP3 DUP2 ADD SWAP3 PUSH1 0x1 ADD PUSH2 0x9DB JUMP JUMPDEST SWAP2 SWAP1 SWAP2 PUSH2 0xAA0 PUSH1 0xE4 CALLDATALOAD SWAP4 PUSH2 0xA2F DUP6 TIMESTAMP GT ISZERO PUSH2 0x68E JUMP JUMPDEST PUSH2 0xA9A PUSH2 0xA57 PUSH2 0xA3D PUSH2 0x6C4 JUMP JUMPDEST PUSH1 0x1 PUSH1 0x1 PUSH1 0xA0 SHL SUB AND PUSH1 0x0 SWAP1 DUP2 MSTORE PUSH1 0x3 PUSH1 0x20 MSTORE PUSH1 0x40 SWAP1 KECCAK256 SWAP1 JUMP JUMPDEST SWAP4 PUSH2 0xA89 PUSH2 0xA84 PUSH2 0xA80 PUSH2 0xA79 PUSH2 0x104 CALLDATALOAD DUP1 SWAP10 SWAP1 PUSH1 0x0 MSTORE PUSH1 0x20 MSTORE PUSH1 0x40 PUSH1 0x0 KECCAK256 SWAP1 JUMP JUMPDEST SLOAD PUSH1 0xFF AND SWAP1 JUMP JUMPDEST ISZERO SWAP1 JUMP JUMPDEST PUSH2 0x6EB JUMP JUMPDEST PUSH2 0xA92 CALLDATASIZE PUSH2 0x567 JUMP JUMPDEST SWAP3 CALLDATASIZE SWAP2 PUSH2 0x740 JUMP JUMPDEST SWAP1 PUSH2 0xEFE JUMP JUMPDEST SWAP3 PUSH2 0xACC PUSH2 0xABB PUSH2 0xAAF PUSH2 0x6C4 JUMP JUMPDEST PUSH1 0x1 PUSH1 0x1 PUSH1 0xA0 SHL SUB AND SWAP1 JUMP JUMPDEST PUSH1 0x1 PUSH1 0x1 PUSH1 0xA0 SHL SUB SWAP6 DUP7 AND EQ PUSH2 0x777 JUMP JUMPDEST PUSH2 0xAFA PUSH2 0xAED DUP4 PUSH2 0xADE PUSH2 0xA3D PUSH2 0x6C4 JUMP JUMPDEST SWAP1 PUSH1 0x0 MSTORE PUSH1 0x20 MSTORE PUSH1 0x40 PUSH1 0x0 KECCAK256 SWAP1 JUMP JUMPDEST DUP1 SLOAD PUSH1 0xFF NOT AND PUSH1 0x1 OR SWAP1 SSTORE JUMP JUMPDEST PUSH2 0xB08 PUSH2 0xAAF PUSH2 0xAAF PUSH2 0x6D3 JUMP JUMPDEST SWAP1 PUSH2 0xB11 PUSH2 0x6C4 JUMP JUMPDEST PUSH1 0x40 MLOAD PUSH4 0x23B872DD PUSH1 0xE0 SHL DUP2 MSTORE PUSH1 0x1 PUSH1 0x1 PUSH1 0xA0 SHL SUB SWAP2 SWAP1 SWAP2 AND PUSH1 0x4 DUP3 ADD MSTORE ADDRESS PUSH1 0x24 DUP3 ADD MSTORE PUSH1 0x64 DUP1 CALLDATALOAD PUSH1 0x44 DUP4 ADD DUP2 SWAP1 MSTORE PUSH1 0x0 SWAP5 SWAP1 SWAP2 PUSH1 0x20 SWAP2 DUP3 SWAP2 DUP6 SWAP2 DUP3 SWAP1 DUP10 SWAP1 GAS CALL SWAP3 DUP4 ISZERO PUSH2 0xCDE JUMPI DUP6 SWAP4 PUSH2 0xB6C SWAP2 DUP6 SWAP2 PUSH2 0xE35 JUMPI JUMPDEST POP PUSH2 0x7D4 JUMP JUMPDEST DUP2 PUSH1 0x2 SLOAD DUP1 PUSH2 0xD0E JUMPI JUMPDEST POP POP POP PUSH2 0xB96 PUSH2 0xB88 PUSH1 0xA4 CALLDATALOAD DUP4 PUSH2 0x822 JUMP JUMPDEST PUSH8 0xDE0B6B3A7640000 SWAP1 DIV SWAP1 JUMP JUMPDEST PUSH1 0xC4 CALLDATALOAD DUP1 PUSH2 0xCEA JUMPI JUMPDEST POP PUSH1 0x84 CALLDATALOAD SWAP1 DUP1 DUP3 GT ISZERO PUSH2 0xCE3 JUMPI POP JUMPDEST PUSH2 0xBB6 PUSH2 0x6D3 JUMP JUMPDEST SWAP1 PUSH2 0xBE3 DUP4 PUSH32 0x0 DUP1 SWAP5 PUSH2 0xFFC JUMP JUMPDEST DUP4 DUP10 PUSH2 0xBED PUSH2 0x8BA JUMP JUMPDEST SWAP5 PUSH2 0xC11 PUSH2 0xBF9 PUSH2 0x6D3 JUMP JUMPDEST PUSH2 0xC02 DUP9 PUSH2 0x8FD JUMP JUMPDEST PUSH1 0x1 PUSH1 0x1 PUSH1 0xA0 SHL SUB SWAP1 SWAP2 AND SWAP1 MSTORE JUMP JUMPDEST PUSH2 0xC25 PUSH2 0xC1C PUSH2 0x6DF JUMP JUMPDEST PUSH2 0xC02 DUP9 PUSH2 0x90F JUMP JUMPDEST PUSH2 0xC4E PUSH2 0xC30 PUSH2 0x6C4 JUMP JUMPDEST SWAP9 PUSH1 0x40 MLOAD SWAP10 DUP11 SWAP9 DUP10 SWAP8 DUP9 SWAP6 PUSH4 0x38ED1739 PUSH1 0xE0 SHL DUP8 MSTORE PUSH1 0x4 DUP8 ADD PUSH2 0x9AD JUMP JUMPDEST SUB SWAP4 AND GAS CALL SWAP1 DUP2 ISZERO PUSH2 0xCDE JUMPI DUP3 PUSH2 0xC77 SWAP4 SWAP3 PUSH2 0xCBB JUMPI JUMPDEST POP POP PUSH2 0xC71 DUP2 MLOAD PUSH2 0x84A JUMP JUMPDEST SWAP1 PUSH2 0x91F JUMP JUMPDEST MLOAD SWAP3 PUSH2 0xC81 PUSH2 0x6C4 JUMP JUMPDEST AND PUSH32 0x232B208D5AE890F6C319F1C92859A55C13AEFFE9E64D80BA1F92B46FBD9E6323 PUSH1 0x40 MLOAD DUP1 PUSH2 0xCB6 DUP8 DUP3 SWAP2 SWAP1 PUSH1 0x20 DUP4 ADD SWAP3 MSTORE JUMP JUMPDEST SUB SWAP1 LOG3 JUMP JUMPDEST PUSH2 0xCD7 SWAP3 POP RETURNDATASIZE DUP1 SWAP2 DUP4 RETURNDATACOPY PUSH2 0xCCF DUP2 DUP4 PUSH2 0x524 JUMP JUMPDEST DUP2 ADD SWAP1 PUSH2 0x933 JUMP JUMPDEST CODESIZE DUP1 PUSH2 0xC65 JUMP JUMPDEST PUSH2 0x7C8 JUMP JUMPDEST SWAP1 POP PUSH2 0xBAE JUMP JUMPDEST PUSH2 0xD08 SWAP2 PUSH2 0xCFA PUSH2 0xD00 SWAP3 PUSH2 0x83A JUMP JUMPDEST SWAP1 PUSH2 0x822 JUMP JUMPDEST PUSH2 0x2710 SWAP1 DIV SWAP1 JUMP JUMPDEST CODESIZE PUSH2 0xB9F JUMP JUMPDEST DUP2 SWAP3 SWAP4 POP PUSH2 0xD00 PUSH2 0xD22 SWAP2 PUSH2 0xD29 SWAP4 PUSH2 0x822 JUMP JUMPDEST DUP1 SWAP3 PUSH2 0x859 JUMP JUMPDEST SWAP2 DUP2 PUSH2 0xD36 JUMPI JUMPDEST DUP1 PUSH2 0xB76 JUMP JUMPDEST PUSH2 0xD85 SWAP4 POP DUP1 DUP3 PUSH2 0xD4B PUSH2 0xAAF PUSH2 0xAAF PUSH2 0x6D3 JUMP JUMPDEST PUSH1 0x1 SLOAD PUSH1 0x40 MLOAD PUSH4 0xA9059CBB PUSH1 0xE0 SHL DUP2 MSTORE PUSH1 0x1 PUSH1 0x1 PUSH1 0xA0 SHL SUB SWAP1 SWAP2 AND PUSH1 0x4 DUP3 ADD MSTORE PUSH1 0x24 DUP2 ADD SWAP3 SWAP1 SWAP3 MSTORE SWAP1 SWAP6 DUP7 SWAP2 SWAP1 DUP3 SWAP1 DUP11 SWAP1 DUP3 SWAP1 PUSH1 0x44 DUP3 ADD SWAP1 JUMP JUMPDEST SUB SWAP3 GAS CALL DUP1 ISZERO PUSH2 0xCDE JUMPI DUP7 SWAP5 PUSH2 0xDA3 SWAP3 DUP7 SWAP3 PUSH2 0xE08 JUMPI JUMPDEST POP POP PUSH2 0x866 JUMP JUMPDEST PUSH1 0x1 SLOAD PUSH1 0x1 PUSH1 0x1 PUSH1 0xA0 SHL SUB AND SWAP1 PUSH32 0x916B8175CD5C46D919FD13BB22FFC701A10DEC261C617873A53C55D45569A4E4 DUP10 PUSH2 0xDDA PUSH2 0x6D3 JUMP JUMPDEST PUSH2 0xDFE PUSH1 0x2 SLOAD DUP4 PUSH1 0x40 MLOAD SWAP5 DUP6 SWAP5 AND SWAP8 AND SWAP6 DUP4 PUSH1 0x20 SWAP1 SWAP4 SWAP3 SWAP2 SWAP4 PUSH1 0x40 DUP2 ADD SWAP5 DUP2 MSTORE ADD MSTORE JUMP JUMPDEST SUB SWAP1 LOG3 CODESIZE DUP1 PUSH2 0xD30 JUMP JUMPDEST PUSH2 0xE27 SWAP3 POP DUP1 RETURNDATASIZE LT PUSH2 0xE2E JUMPI JUMPDEST PUSH2 0xE1F DUP2 DUP4 PUSH2 0x524 JUMP JUMPDEST DUP2 ADD SWAP1 PUSH2 0x7B0 JUMP JUMPDEST CODESIZE DUP1 PUSH2 0xD9C JUMP JUMPDEST POP RETURNDATASIZE PUSH2 0xE15 JUMP JUMPDEST PUSH2 0xE4C SWAP2 POP DUP4 RETURNDATASIZE DUP6 GT PUSH2 0xE2E JUMPI PUSH2 0xE1F DUP2 DUP4 PUSH2 0x524 JUMP JUMPDEST CODESIZE PUSH2 0xB66 JUMP JUMPDEST PUSH1 0x1 DUP1 PUSH1 0xA0 SHL SUB DUP1 DUP3 MLOAD AND SWAP2 DUP2 PUSH1 0x20 DUP3 ADD MLOAD AND SWAP2 PUSH1 0x40 DUP3 ADD MLOAD AND SWAP1 PUSH1 0x60 DUP2 ADD MLOAD SWAP1 PUSH1 0x80 DUP2 ADD MLOAD SWAP1 PUSH1 0xA0 DUP2 ADD MLOAD PUSH1 0xC0 DUP3 ADD MLOAD SWAP3 PUSH1 0xE0 DUP4 ADD MLOAD SWAP5 PUSH2 0x100 DUP1 SWAP5 ADD MLOAD SWAP7 PUSH1 0x40 MLOAD SWAP9 PUSH1 0x20 DUP11 ADD SWAP11 PUSH32 0x8719B3760EDC0C2725C76603401748C4AA09562BFA23A259947390A9B27B4CE9 DUP13 MSTORE PUSH1 0x40 DUP12 ADD MSTORE PUSH1 0x60 DUP11 ADD MSTORE PUSH1 0x80 DUP10 ADD MSTORE PUSH1 0xA0 DUP9 ADD MSTORE PUSH1 0xC0 DUP8 ADD MSTORE PUSH1 0xE0 DUP7 ADD MSTORE DUP5 ADD MSTORE PUSH2 0x120 DUP4 ADD MSTORE PUSH2 0x140 SWAP1 DUP2 DUP4 ADD MSTORE DUP2 MSTORE PUSH2 0xEF8 DUP2 PUSH2 0x4E6 JUMP JUMPDEST MLOAD SWAP1 KECCAK256 SWAP1 JUMP JUMPDEST PUSH2 0xF07 SWAP1 PUSH2 0xE52 JUMP JUMPDEST PUSH1 0x40 MLOAD PUSH1 0x20 DUP2 ADD SWAP2 PUSH2 0x1901 PUSH1 0xF0 SHL DUP4 MSTORE PUSH32 0x0 PUSH1 0x22 DUP4 ADD MSTORE PUSH1 0x42 DUP3 ADD MSTORE PUSH1 0x42 DUP2 MSTORE PUSH2 0xF4F DUP2 PUSH2 0x508 JUMP JUMPDEST MLOAD SWAP1 KECCAK256 SWAP1 PUSH1 0x41 DUP2 MLOAD SUB PUSH2 0xF9D JUMPI PUSH1 0x20 DUP2 DUP2 ADD MLOAD PUSH1 0x40 DUP1 DUP5 ADD MLOAD PUSH1 0x60 SWAP5 DUP6 ADD MLOAD DUP3 MLOAD SWAP7 DUP8 MSTORE PUSH1 0x0 SWAP1 DUP2 BYTE DUP8 DUP7 ADD MSTORE SWAP2 DUP7 ADD SWAP3 SWAP1 SWAP3 MSTORE SWAP3 DUP5 ADD MSTORE DUP2 DUP1 MSTORE SWAP2 PUSH1 0x80 SWAP1 PUSH1 0x1 GAS STATICCALL ISZERO PUSH2 0xCDE JUMPI PUSH1 0x0 MLOAD SWAP1 JUMP JUMPDEST PUSH1 0x40 MLOAD PUSH3 0x461BCD PUSH1 0xE5 SHL DUP2 MSTORE PUSH1 0x20 PUSH1 0x4 DUP3 ADD MSTORE PUSH1 0x7 PUSH1 0x24 DUP3 ADD MSTORE PUSH7 0x62616420736967 PUSH1 0xC8 SHL PUSH1 0x44 DUP3 ADD MSTORE PUSH1 0x64 SWAP1 REVERT JUMPDEST RETURNDATASIZE ISZERO PUSH2 0xFF7 JUMPI RETURNDATASIZE SWAP1 PUSH2 0xFDD DUP3 PUSH2 0x724 JUMP JUMPDEST SWAP2 PUSH2 0xFEB PUSH1 0x40 MLOAD SWAP4 DUP5 PUSH2 0x524 JUMP JUMPDEST DUP3 MSTORE RETURNDATASIZE PUSH1 0x0 PUSH1 0x20 DUP5 ADD RETURNDATACOPY JUMP JUMPDEST PUSH1 0x60 SWAP1 JUMP JUMPDEST PUSH1 0x40 MLOAD PUSH4 0x95EA7B3 PUSH1 0xE0 SHL PUSH1 0x20 DUP3 ADD DUP2 DUP2 MSTORE PUSH1 0x1 PUSH1 0x1 PUSH1 0xA0 SHL SUB DUP6 AND PUSH1 0x24 DUP5 ADD MSTORE PUSH1 0x0 PUSH1 0x44 DUP1 DUP6 ADD DUP3 SWAP1 MSTORE DUP5 MSTORE SWAP6 DUP7 SWAP6 SWAP3 SWAP4 DUP7 SWAP4 SWAP2 SWAP3 PUSH2 0x1083 SWAP3 SWAP2 DUP6 SWAP2 DUP3 SWAP2 PUSH2 0x1044 DUP2 PUSH2 0x508 JUMP JUMPDEST MLOAD SWAP1 DUP3 DUP11 GAS CALL POP PUSH2 0x1053 PUSH2 0xFCC JUMP JUMPDEST POP PUSH1 0x40 MLOAD PUSH1 0x20 DUP2 ADD SWAP6 DUP7 MSTORE PUSH1 0x1 PUSH1 0x1 PUSH1 0xA0 SHL SUB SWAP2 SWAP1 SWAP2 AND PUSH1 0x24 DUP3 ADD MSTORE PUSH1 0x44 DUP1 DUP3 ADD SWAP4 SWAP1 SWAP4 MSTORE SWAP2 DUP3 MSTORE PUSH1 0x64 DUP3 PUSH2 0x524 JUMP JUMPDEST MLOAD SWAP3 GAS CALL PUSH2 0x108F PUSH2 0xFCC JUMP JUMPDEST POP ISZERO PUSH2 0x1097 JUMPI JUMP JUMPDEST PUSH1 0x40 MLOAD PUSH3 0x461BCD PUSH1 0xE5 SHL DUP2 MSTORE PUSH1 0x20 PUSH1 0x4 DUP3 ADD MSTORE PUSH1 0xC PUSH1 0x24 DUP3 ADD MSTORE PUSH12 0x185C1C1C9BDD994819985A5B PUSH1 0xA2 SHL PUSH1 0x44 DUP3 ADD MSTORE PUSH1 0x64 SWAP1 REVERT JUMPDEST ISZERO PUSH2 0x10D2 JUMPI JUMP JUMPDEST PUSH1 0x40 MLOAD PUSH3 0x461BCD PUSH1 0xE5 SHL DUP2 MSTORE PUSH1 0x20 PUSH1 0x4 DUP3 ADD MSTORE PUSH1 0xC PUSH1 0x24 DUP3 ADD MSTORE PUSH12 0xCCCACA40E8DEDE40D0D2CED PUSH1 0xA3 SHL PUSH1 0x44 DUP3 ADD MSTORE PUSH1 0x64 SWAP1 REVERT INVALID LOG2 PUSH5 0x6970667358 0x22 SLT KECCAK256 0xE8 0xE0 DELEGATECALL 0xA7 0x23 TSTORE 0xC 0xDE 0x2F 0x21 MOD POP 0xE RETURN 0xF9 0xE9 0x4C 0x4B SWAP10 SWAP15 TLOAD BLOBBASEFEE RETURNDATACOPY 0xC7 PUSH31 0x57297EE9583B2164736F6C6343000818003300000000000000000000000000 "},"methodIdentifiers":{"DOMAIN_SEPARATOR()":"3644e515","ROUTER()":"32fe7b26","WSOMI()":"d5a53bbb","cancel(uint256)":"40e58ee5","execute((address,address,address,uint256,uint256,uint256,uint256,uint256,uint256),bytes)":"2fa423e8","feeBps()":"24a9d853","feeRecipient()":"46904840","hashOrder((address,address,address,uint256,uint256,uint256,uint256,uint256,uint256))":"f5c9ce46","nonceUsed(address,uint256)":"1647795e","owner()":"8da5cb5b","setFee(address,uint256)":"e55156b5","setOwner(address)":"13af4035"}}}}}