{
  "_format": "hh-sol-artifact-1",
  "contractName": "LimitOrderManager",
  "sourceName": "contracts/LimitOrderManager.sol",
  "abi": [
    {
      "inputs": [
        {
          "internalType": "address",
          "name": "_router",
          "type": "address"
        },
        {
          "internalType": "address",
          "name": "_wsomi",
          "type": "address"
        },
        {
          "internalType": "address",
          "name": "_feeRecipient",
          "type": "address"
        },
        {
          "internalType": "uint256",
          "name": "_feeBps",
          "type": "uint256"
        }
      ],
      "stateMutability": "nonpayable",
      "type": "constructor"
    },
    {
      "anonymous": false,
      "inputs": [
        {
          "indexed": true,
          "internalType": "address",
          "name": "recipient",
          "type": "address"
        },
        {
          "indexed": true,
          "internalType": "address",
          "name": "token",
          "type": "address"
        },
        {
          "indexed": false,
          "internalType": "uint256",
          "name": "feeAmount",
          "type": "uint256"
        },
        {
          "indexed": false,
          "internalType": "uint256",
          "name": "bps",
          "type": "uint256"
        }
      ],
      "name": "FeeTaken",
      "type": "event"
    },
    {
      "anonymous": false,
      "inputs": [
        {
          "indexed": true,
          "internalType": "address",
          "name": "recipient",
          "type": "address"
        },
        {
          "indexed": false,
          "internalType": "uint256",
          "name": "feeBps",
          "type": "uint256"
        }
      ],
      "name": "FeeUpdated",
      "type": "event"
    },
    {
      "anonymous": false,
      "inputs": [
        {
          "indexed": true,
          "internalType": "address",
          "name": "trader",
          "type": "address"
        },
        {
          "indexed": true,
          "internalType": "uint256",
          "name": "nonce",
          "type": "uint256"
        }
      ],
      "name": "OrderCanceled",
      "type": "event"
    },
    {
      "anonymous": false,
      "inputs": [
        {
          "indexed": true,
          "internalType": "address",
          "name": "trader",
          "type": "address"
        },
        {
          "indexed": true,
          "internalType": "uint256",
          "name": "nonce",
          "type": "uint256"
        },
        {
          "indexed": false,
          "internalType": "uint256",
          "name": "amountOut",
          "type": "uint256"
        }
      ],
      "name": "OrderExecuted",
      "type": "event"
    },
    {
      "inputs": [],
      "name": "DOMAIN_SEPARATOR",
      "outputs": [
        {
          "internalType": "bytes32",
          "name": "",
          "type": "bytes32"
        }
      ],
      "stateMutability": "view",
      "type": "function"
    },
    {
      "inputs": [],
      "name": "ROUTER",
      "outputs": [
        {
          "internalType": "address",
          "name": "",
          "type": "address"
        }
      ],
      "stateMutability": "view",
      "type": "function"
    },
    {
      "inputs": [],
      "name": "WSOMI",
      "outputs": [
        {
          "internalType": "address",
          "name": "",
          "type": "address"
        }
      ],
      "stateMutability": "view",
      "type": "function"
    },
    {
      "inputs": [
        {
          "internalType": "uint256",
          "name": "nonce",
          "type": "uint256"
        }
      ],
      "name": "cancel",
      "outputs": [],
      "stateMutability": "nonpayable",
      "type": "function"
    },
    {
      "inputs": [
        {
          "components": [
            {
              "internalType": "address",
              "name": "trader",
              "type": "address"
            },
            {
              "internalType": "address",
              "name": "tokenIn",
              "type": "address"
            },
            {
              "internalType": "address",
              "name": "tokenOut",
              "type": "address"
            },
            {
              "internalType": "uint256",
              "name": "amountIn",
              "type": "uint256"
            },
            {
              "internalType": "uint256",
              "name": "amountOutMin",
              "type": "uint256"
            },
            {
              "internalType": "uint256",
              "name": "limitPriceE18",
              "type": "uint256"
            },
            {
              "internalType": "uint256",
              "name": "slippageBps",
              "type": "uint256"
            },
            {
              "internalType": "uint256",
              "name": "deadline",
              "type": "uint256"
            },
            {
              "internalType": "uint256",
              "name": "nonce",
              "type": "uint256"
            }
          ],
          "internalType": "struct LimitOrderManager.Order",
          "name": "o",
          "type": "tuple"
        },
        {
          "internalType": "bytes",
          "name": "sig",
          "type": "bytes"
        }
      ],
      "name": "execute",
      "outputs": [
        {
          "internalType": "uint256",
          "name": "amountOut",
          "type": "uint256"
        }
      ],
      "stateMutability": "nonpayable",
      "type": "function"
    },
    {
      "inputs": [],
      "name": "feeBps",
      "outputs": [
        {
          "internalType": "uint256",
          "name": "",
          "type": "uint256"
        }
      ],
      "stateMutability": "view",
      "type": "function"
    },
    {
      "inputs": [],
      "name": "feeRecipient",
      "outputs": [
        {
          "internalType": "address",
          "name": "",
          "type": "address"
        }
      ],
      "stateMutability": "view",
      "type": "function"
    },
    {
      "inputs": [
        {
          "components": [
            {
              "internalType": "address",
              "name": "trader",
              "type": "address"
            },
            {
              "internalType": "address",
              "name": "tokenIn",
              "type": "address"
            },
            {
              "internalType": "address",
              "name": "tokenOut",
              "type": "address"
            },
            {
              "internalType": "uint256",
              "name": "amountIn",
              "type": "uint256"
            },
            {
              "internalType": "uint256",
              "name": "amountOutMin",
              "type": "uint256"
            },
            {
              "internalType": "uint256",
              "name": "limitPriceE18",
              "type": "uint256"
            },
            {
              "internalType": "uint256",
              "name": "slippageBps",
              "type": "uint256"
            },
            {
              "internalType": "uint256",
              "name": "deadline",
              "type": "uint256"
            },
            {
              "internalType": "uint256",
              "name": "nonce",
              "type": "uint256"
            }
          ],
          "internalType": "struct LimitOrderManager.Order",
          "name": "o",
          "type": "tuple"
        }
      ],
      "name": "hashOrder",
      "outputs": [
        {
          "internalType": "bytes32",
          "name": "",
          "type": "bytes32"
        }
      ],
      "stateMutability": "pure",
      "type": "function"
    },
    {
      "inputs": [
        {
          "internalType": "address",
          "name": "",
          "type": "address"
        },
        {
          "internalType": "uint256",
          "name": "",
          "type": "uint256"
        }
      ],
      "name": "nonceUsed",
      "outputs": [
        {
          "internalType": "bool",
          "name": "",
          "type": "bool"
        }
      ],
      "stateMutability": "view",
      "type": "function"
    },
    {
      "inputs": [],
      "name": "owner",
      "outputs": [
        {
          "internalType": "address",
          "name": "",
          "type": "address"
        }
      ],
      "stateMutability": "view",
      "type": "function"
    },
    {
      "inputs": [
        {
          "internalType": "address",
          "name": "_recipient",
          "type": "address"
        },
        {
          "internalType": "uint256",
          "name": "_feeBps",
          "type": "uint256"
        }
      ],
      "name": "setFee",
      "outputs": [],
      "stateMutability": "nonpayable",
      "type": "function"
    },
    {
      "inputs": [
        {
          "internalType": "address",
          "name": "newOwner",
          "type": "address"
        }
      ],
      "name": "setOwner",
      "outputs": [],
      "stateMutability": "nonpayable",
      "type": "function"
    }
  ],
  "bytecode": "0x60e03462000279576001600160401b0390601f620013ec38819003918201601f1916830192919084841183851017620001cc578160809284926040968752833981010312620002795762000053816200029a565b90602091620000648383016200029a565b906060620000748685016200029a565b930151916001600160a01b0391808316156200024a5760805260a052600080546001600160a01b03199081163317909155921691821562000215576103e88211620001e2577f6f0eaf2c2f89fb4cfe96a1dee5e764d60b52c7f48aaa590f0850e308aa1b953a918385926001541617600155806002558551908152a2601281835162000100816200027e565b828152017142696e676d65204c696d69744f726465727360701b8152209160018282516200012e816200027e565b82815201603160f81b8152208151928301937f8b73c3c69bb8fe3d512ecc4cf759cc79239f7b179b0ffacaa9a75d522b39400f85528284015260608301524660808301523060a083015260a0825260c082019382851090851117620001cc5783905251902060c05261113c9081620002b082396080518181816102930152610bbd015260a051816103c5015260c0518181816102da0152610f190152f35b634e487b7160e01b600052604160045260246000fd5b845162461bcd60e51b815260048101859052600c60248201526b0cccaca40e8dede40d0d2ced60a31b6044820152606490fd5b845162461bcd60e51b815260048101859052600e60248201526d0666565526563697069656e743d360941b6044820152606490fd5b865162461bcd60e51b81526004810187905260086024820152670726f757465723d360c41b6044820152606490fd5b600080fd5b604081019081106001600160401b03821117620001cc57604052565b51906001600160a01b0382168203620002795756fe6080604052600436101561001257600080fd5b60003560e01c806313af4035146100d75780631647795e146100d257806324a9d853146100cd5780632fa423e8146100c857806332fe7b26146100c35780633644e515146100be57806340e58ee5146100b957806346904840146100b45780638da5cb5b146100af578063d5a53bbb146100aa578063e55156b5146100a55763f5c9ce46146100a057600080fd5b6105d5565b6103f4565b6103af565b610386565b61035d565b6102fd565b6102c2565b61027d565b610207565b6101e9565b610199565b61011b565b6001600160a01b038116036100ed57565b600080fd5b600435906100ff826100dc565b565b602435906100ff826100dc565b604435906100ff826100dc565b346100ed5760203660031901126100ed57600435610138816100dc565b600054906001600160a01b03906101523383851614610656565b1690811561016a576001600160a01b03191617600055005b60405162461bcd60e51b815260206004820152600760248201526606f776e65723d360cc1b6044820152606490fd5b346100ed5760403660031901126100ed576004356101b6816100dc565b60018060a01b031660005260036020526040600020602435600052602052602060ff604060002054166040519015158152f35b346100ed5760003660031901126100ed576020600254604051908152f35b346100ed57366003190161014081126100ed57610120136100ed5767ffffffffffffffff610124358181116100ed57366023820112156100ed5780600401359182116100ed5736602483830101116100ed576102799160246102699201610a19565b6040519081529081906020820190565b0390f35b346100ed5760003660031901126100ed576040517f00000000000000000000000000000000000000000000000000000000000000006001600160a01b03168152602090f35b346100ed5760003660031901126100ed5760206040517f00000000000000000000000000000000000000000000000000000000000000008152f35b346100ed5760203660031901126100ed5760043560009033825260036020526040822081835260205260408220600160ff19825416179055337fafe5d45b77c7cea746dab67e30e6ca60c00cec51787feb121441c48ec20e3e578380a380f35b346100ed5760003660031901126100ed576001546040516001600160a01b039091168152602090f35b346100ed5760003660031901126100ed576000546040516001600160a01b039091168152602090f35b346100ed5760003660031901126100ed576040517f00000000000000000000000000000000000000000000000000000000000000006001600160a01b03168152602090f35b346100ed5760403660031901126100ed57600435610411816100dc565b60243560018060a01b0361042a81600054163314610656565b821691821561049a578161048c6104959261046a6103e87f6f0eaf2c2f89fb4cfe96a1dee5e764d60b52c7f48aaa590f0850e308aa1b953a9611156110cb565b60018060a01b03166bffffffffffffffffffffffff60a01b6001541617600155565b61026981600255565b0390a2005b60405162461bcd60e51b815260206004820152600e60248201526d0666565526563697069656e743d360941b6044820152606490fd5b634e487b7160e01b600052604160045260246000fd5b610160810190811067ffffffffffffffff82111761050357604052565b6104d0565b6080810190811067ffffffffffffffff82111761050357604052565b90601f8019910116810190811067ffffffffffffffff82111761050357604052565b60405190610120820182811067ffffffffffffffff82111761050357604052565b6101209060031901126100ed5761057c610546565b906105856100f2565b825261058f610101565b602083015261059c61010e565b60408301526064356060830152608435608083015260a43560a083015260c43560c083015260e43560e083015261010435610100830152565b346100ed576101203660031901126100ed57602061064e6105f4610546565b6105fc6100f2565b8152610606610101565b8382015261061261010e565b60408201526064356060820152608435608082015260a43560a082015260c43560c082015260e43560e082015261010435610100820152610e52565b604051908152f35b1561065d57565b60405162461bcd60e51b81526020600482015260096024820152683737ba1037bbb732b960b91b6044820152606490fd5b1561069557565b60405162461bcd60e51b8152602060048201526007602482015266195e1c1a5c995960ca1b6044820152606490fd5b6004356106d0816100dc565b90565b6024356106d0816100dc565b6044356106d0816100dc565b156106f257565b60405162461bcd60e51b815260206004820152600a6024820152691b9bdb98d9481d5cd95960b21b6044820152606490fd5b67ffffffffffffffff811161050357601f01601f191660200190565b92919261074c82610724565b9161075a6040519384610524565b8294818452818301116100ed578281602093846000960137010152565b1561077e57565b60405162461bcd60e51b815260206004820152600a6024820152693130b21039b4b3b732b960b11b6044820152606490fd5b908160209103126100ed575180151581036100ed5790565b6040513d6000823e3d90fd5b156107db57565b60405162461bcd60e51b81526020600482015260096024820152681c1d5b1b0819985a5b60ba1b6044820152606490fd5b634e487b7160e01b600052601160045260246000fd5b8181029291811591840414171561083557565b61080c565b9061271091820391821161083557565b60001981019190821161083557565b9190820391821161083557565b1561086d57565b60405162461bcd60e51b815260206004820152600d60248201526c199959481e19995c8819985a5b609a1b6044820152606490fd5b67ffffffffffffffff81116105035760051b60200190565b604051906060820182811067ffffffffffffffff8211176105035760405260028252604082602036910137565b634e487b7160e01b600052603260045260246000fd5b80511561090a5760200190565b6108e7565b80516001101561090a5760400190565b805182101561090a5760209160051b010190565b60209081818403126100ed5780519067ffffffffffffffff82116100ed57019180601f840112156100ed578251610969816108a2565b936109776040519586610524565b818552838086019260051b8201019283116100ed578301905b82821061099e575050505090565b81518152908301908301610990565b9291909594939560a08401908452602091602085015260a060408501528251809152602060c0850193019160005b8281106109fc5750505050906080919460018060a01b031660608201520152565b83516001600160a01b0316855293810193928101926001016109db565b919091610aa060e43593610a2f8542111561068e565b610a9a610a57610a3d6106c4565b6001600160a01b0316600090815260036020526040902090565b93610a89610a84610a80610a7961010435809990600052602052604060002090565b5460ff1690565b1590565b6106eb565b610a9236610567565b923691610740565b90610efe565b92610acc610abb610aaf6106c4565b6001600160a01b031690565b6001600160a01b0395861614610777565b610afa610aed83610ade610a3d6106c4565b90600052602052604060002090565b805460ff19166001179055565b610b08610aaf610aaf6106d3565b90610b116106c4565b6040516323b872dd60e01b81526001600160a01b039190911660048201523060248201526064803560448301819052600094909160209182918591829089905af1928315610cde578593610b6c918591610e35575b506107d4565b8160025480610d0e575b505050610b96610b8860a43583610822565b670de0b6b3a7640000900490565b60c43580610cea575b506084359080821115610ce357505b610bb66106d3565b90610be3837f00000000000000000000000000000000000000000000000000000000000000008094610ffc565b8389610bed6108ba565b94610c11610bf96106d3565b610c02886108fd565b6001600160a01b039091169052565b610c25610c1c6106df565b610c028861090f565b610c4e610c306106c4565b98604051998a98899788956338ed173960e01b8752600487016109ad565b0393165af1908115610cde5782610c779392610cbb575b5050610c71815161084a565b9061091f565b5192610c816106c4565b167f232b208d5ae890f6c319f1c92859a55c13aeffe9e64d80ba1f92b46fbd9e632360405180610cb687829190602083019252565b0390a3565b610cd792503d8091833e610ccf8183610524565b810190610933565b3880610c65565b6107c8565b9050610bae565b610d0891610cfa610d009261083a565b90610822565b612710900490565b38610b9f565b81929350610d00610d2291610d2993610822565b8092610859565b9181610d36575b80610b76565b610d8593508082610d4b610aaf610aaf6106d3565b60015460405163a9059cbb60e01b81526001600160a01b0390911660048201526024810192909252909586919082908a9082906044820190565b03925af18015610cde578694610da3928692610e08575b5050610866565b6001546001600160a01b0316907f916b8175cd5c46d919fd13bb22ffc701a10dec261c617873a53c55d45569a4e489610dda6106d3565b610dfe60025483604051948594169716958360209093929193604081019481520152565b0390a33880610d30565b610e279250803d10610e2e575b610e1f8183610524565b8101906107b0565b3880610d9c565b503d610e15565b610e4c9150833d8511610e2e57610e1f8183610524565b38610b66565b60018060a01b03808251169181602082015116916040820151169060608101519060808101519060a081015160c08201519260e08301519461010080940151966040519860208a019a7f8719b3760edc0c2725c76603401748c4aa09562bfa23a259947390a9b27b4ce98c5260408b015260608a0152608089015260a088015260c087015260e086015284015261012083015261014090818301528152610ef8816104e6565b51902090565b610f0790610e52565b604051602081019161190160f01b83527f00000000000000000000000000000000000000000000000000000000000000006022830152604282015260428152610f4f81610508565b519020906041815103610f9d576020818101516040808401516060948501518251968752600090811a8786015291860192909252928401528180529160809060015afa15610cde5760005190565b60405162461bcd60e51b81526020600482015260076024820152666261642073696760c81b6044820152606490fd5b3d15610ff7573d90610fdd82610724565b91610feb6040519384610524565b82523d6000602084013e565b606090565b60405163095ea7b360e01b602082018181526001600160a01b038516602484015260006044808501829052845295869592938693919261108392918591829161104481610508565b5190828a5af150611053610fcc565b50604051602081019586526001600160a01b03919091166024820152604480820193909352918252606482610524565b51925af161108f610fcc565b501561109757565b60405162461bcd60e51b815260206004820152600c60248201526b185c1c1c9bdd994819985a5b60a21b6044820152606490fd5b156110d257565b60405162461bcd60e51b815260206004820152600c60248201526b0cccaca40e8dede40d0d2ced60a31b6044820152606490fdfea2646970667358221220e8e0f4a7235d0cde2f2106500ef3f9e94c4b999e5c4a3ec77e57297ee9583b2164736f6c63430008180033",
  "linkReferences": {},
  "deployedLinkReferences": {}
}